{
  "_format": "hh-sol-artifact-1",
  "contractName": "VotingVerifier",
  "sourceName": "contracts/VotingVerifier.sol",
  "abi": [
    {
      "inputs": [],
      "stateMutability": "nonpayable",
      "type": "constructor"
    },
    {
      "anonymous": false,
      "inputs": [
        {
          "indexed": false,
          "internalType": "string",
          "name": "message",
          "type": "string"
        },
        {
          "indexed": false,
          "internalType": "bool",
          "name": "value",
          "type": "bool"
        }
      ],
      "name": "Debug",
      "type": "event"
    },
    {
      "anonymous": false,
      "inputs": [
        {
          "indexed": true,
          "internalType": "address",
          "name": "voter",
          "type": "address"
        },
        {
          "indexed": false,
          "internalType": "uint256",
          "name": "vote",
          "type": "uint256"
        }
      ],
      "name": "VoteVerified",
      "type": "event"
    },
    {
      "inputs": [],
      "name": "admin",
      "outputs": [
        {
          "internalType": "address",
          "name": "",
          "type": "address"
        }
      ],
      "stateMutability": "view",
      "type": "function"
    },
    {
      "inputs": [],
      "name": "getVotes",
      "outputs": [
        {
          "internalType": "uint8[2]",
          "name": "",
          "type": "uint8[2]"
        }
      ],
      "stateMutability": "view",
      "type": "function"
    },
    {
      "inputs": [
        {
          "internalType": "address",
          "name": "_voter",
          "type": "address"
        }
      ],
      "name": "registerVoter",
      "outputs": [],
      "stateMutability": "nonpayable",
      "type": "function"
    },
    {
      "inputs": [
        {
          "internalType": "uint256[2]",
          "name": "_pA",
          "type": "uint256[2]"
        },
        {
          "internalType": "uint256[2][2]",
          "name": "_pB",
          "type": "uint256[2][2]"
        },
        {
          "internalType": "uint256[2]",
          "name": "_pC",
          "type": "uint256[2]"
        },
        {
          "internalType": "uint256[1]",
          "name": "_pubSignals",
          "type": "uint256[1]"
        }
      ],
      "name": "verifyProof",
      "outputs": [
        {
          "internalType": "bool",
          "name": "",
          "type": "bool"
        }
      ],
      "stateMutability": "view",
      "type": "function"
    },
    {
      "inputs": [
        {
          "internalType": "uint256[2]",
          "name": "a",
          "type": "uint256[2]"
        },
        {
          "internalType": "uint256[2][2]",
          "name": "b",
          "type": "uint256[2][2]"
        },
        {
          "internalType": "uint256[2]",
          "name": "c",
          "type": "uint256[2]"
        },
        {
          "internalType": "uint256[1]",
          "name": "_input",
          "type": "uint256[1]"
        }
      ],
      "name": "verifyVote",
      "outputs": [
        {
          "internalType": "bool",
          "name": "",
          "type": "bool"
        }
      ],
      "stateMutability": "nonpayable",
      "type": "function"
    },
    {
      "inputs": [
        {
          "internalType": "address",
          "name": "",
          "type": "address"
        }
      ],
      "name": "voters",
      "outputs": [
        {
          "internalType": "bool",
          "name": "registered",
          "type": "bool"
        },
        {
          "internalType": "bool",
          "name": "voted",
          "type": "bool"
        },
        {
          "internalType": "uint256",
          "name": "vote",
          "type": "uint256"
        }
      ],
      "stateMutability": "view",
      "type": "function"
    },
    {
      "inputs": [
        {
          "internalType": "uint256",
          "name": "",
          "type": "uint256"
        }
      ],
      "name": "votes",
      "outputs": [
        {
          "internalType": "uint8",
          "name": "",
          "type": "uint8"
        }
      ],
      "stateMutability": "view",
      "type": "function"
    }
  ],
  "bytecode": "0x608060405234801561001057600080fd5b50336000806101000a81548173ffffffffffffffffffffffffffffffffffffffff021916908373ffffffffffffffffffffffffffffffffffffffff160217905550611698806100606000396000f3fe608060405234801561001057600080fd5b506004361061007d5760003560e01c80635df813301161005b5780635df81330146100ec578063844839201461011c578063a3ec138d1461014c578063f851a4401461017e5761007d565b80630dc960151461008257806338db6dd3146100a057806343753b4d146100bc575b600080fd5b61008a61019c565b6040516100979190610de1565b60405180910390f35b6100ba60048036038101906100b59190610e5f565b61020c565b005b6100d660048036038101906100d19190610ef7565b6103db565b6040516100e39190610f7b565b60405180910390f35b61010660048036038101906101019190610fcc565b610844565b6040516101139190611008565b60405180910390f35b61013660048036038101906101319190610ef7565b61086e565b6040516101439190610f7b565b60405180910390f35b61016660048036038101906101619190610e5f565b610c9f565b60405161017593929190611032565b60405180910390f35b610186610ce3565b6040516101939190611078565b60405180910390f35b6101a4610d07565b60028080602002604051908101604052809291908260028015610202576020028201916000905b82829054906101000a900460ff1660ff16815260200190600101906020826000010492830192600103820291508084116101cb5790505b5050505050905090565b60008054906101000a900473ffffffffffffffffffffffffffffffffffffffff1673ffffffffffffffffffffffffffffffffffffffff163373ffffffffffffffffffffffffffffffffffffffff161461029a576040517f08c379a000000000000000000000000000000000000000000000000000000000815260040161029190611116565b60405180910390fd5b600160008273ffffffffffffffffffffffffffffffffffffffff1673ffffffffffffffffffffffffffffffffffffffff16815260200190815260200160002060000160009054906101000a900460ff161561032a576040517f08c379a000000000000000000000000000000000000000000000000000000000815260040161032190611182565b60405180910390fd5b60405180606001604052806001151581526020016000151581526020016000815250600160008373ffffffffffffffffffffffffffffffffffffffff1673ffffffffffffffffffffffffffffffffffffffff16815260200190815260200160002060008201518160000160006101000a81548160ff02191690831515021790555060208201518160000160016101000a81548160ff0219169083151502179055506040820151816001015590505050565b6000610808565b7f30644e72e131a029b85045b68181585d2833e84879b9709143e1f593f00000018110610413576000805260206000f35b50565b600060405183815284602082015285604082015260408160608360076107d05a03fa915081610449576000805260206000f35b825160408201526020830151606082015260408360808360066107d05a03fa915081610479576000805260206000f35b505050505050565b600060808601600087017f0ea439f4ffda53031cb32c6bf4655d7d4e37857ccad2d2f0999a9b01f07f439081527f08b1989dd3dc1287025ccddeb4114c4546752e32ae57b6a83f68c1adc4123b5c602082015261052460008801357f14c94e074c6c94ac54ba640cf6104b3125cf8d5c43641c4db23ad1943f46ef177f2ce58c07d3f8f196b0d2e8c472a8669b3fef13b3d2499486b39d53d094ec705184610416565b833582527f30644e72e131a029b85045b68181585d97816a916871ca8d3c208c16d87cfd4760208501357f30644e72e131a029b85045b68181585d97816a916871ca8d3c208c16d87cfd4703066020830152843560408301526020850135606083015260408501356080830152606085013560a08301527f2d4d9aa7e302d9df41749d5507949d05dbea33fbb16c643b22f599a2be6df2e260c08301527f14bedd503c37ceb061d8ec60209fe345ce89830a19230301f076caff004d192660e08301527f0967032fcbf776d1afc985f88877f182d38480a653f2decaa9794cbc3bf3060c6101008301527f0e187847ad4c798374d0d6732bf501847dd68bc0e071241e0213bc7fc13db7ab6101208301527f304cfbd1e08a704a99f5e847d93f8c3caafddec46b7a0d379da69a4d112346a76101408301527f1739c1b1a457a8c7313123d24d2f9192f896b7c63eea05a9d57f06547ad0cec8610160830152600088015161018083015260206000018801516101a08301527f198e9393920d483a7260bfb731fb5d25f1aa493335a9e71297e485b7aef312c26101c08301527f1800deef121f1e76426a00665e5c4479674322d4f75edadd46debd5cd992f6ed6101e08301527f090689d0585ff075ec9e99ad690c3395bc4b313370b38ef355acdadcd122975b6102008301527f12c85ea5db8c6deb4aab71808dcb408fe3d1e7690c43d37b4ce6cc0166fa7daa610220830152853561024083015260208601356102608301527f198e9393920d483a7260bfb731fb5d25f1aa493335a9e71297e485b7aef312c26102808301527f1800deef121f1e76426a00665e5c4479674322d4f75edadd46debd5cd992f6ed6102a08301527f090689d0585ff075ec9e99ad690c3395bc4b313370b38ef355acdadcd122975b6102c08301527f12c85ea5db8c6deb4aab71808dcb408fe3d1e7690c43d37b4ce6cc0166fa7daa6102e08301526020826103008460086107d05a03fa82518116935050505095945050505050565b604051610380810160405261082060008401356103e2565b61082d60208401356103e2565b61083a818486888a610481565b8060005260206000f35b6002816002811061085457600080fd5b60209182820401919006915054906101000a900460ff1681565b6000600160003373ffffffffffffffffffffffffffffffffffffffff1673ffffffffffffffffffffffffffffffffffffffff16815260200190815260200160002060000160009054906101000a900460ff166108ff576040517f08c379a00000000000000000000000000000000000000000000000000000000081526004016108f6906111ee565b60405180910390fd5b600160003373ffffffffffffffffffffffffffffffffffffffff1673ffffffffffffffffffffffffffffffffffffffff16815260200190815260200160002060000160019054906101000a900460ff161561098f576040517f08c379a00000000000000000000000000000000000000000000000000000000081526004016109869061125a565b60405180910390fd5b6002826000600181106109a5576109a461127a565b5b6020020135106109ea576040517f08c379a00000000000000000000000000000000000000000000000000000000081526004016109e1906112f5565b60405180910390fd5b60003073ffffffffffffffffffffffffffffffffffffffff166343753b4d878787876040518563ffffffff1660e01b8152600401610a2b94939291906113fd565b602060405180830381865afa158015610a48573d6000803e3d6000fd5b505050506040513d601f19601f82011682018060405250810190610a6c9190611470565b90507fd1401e4d321999a7547f3d989953912043b0f4ab8471cc7307695072f6ee9d8381604051610a9d91906114e9565b60405180910390a180610ae5576040517f08c379a0000000000000000000000000000000000000000000000000000000008152600401610adc90611563565b60405180910390fd5b600083600060018110610afb57610afa61127a565b5b602002013590506000811480610b115750600181145b610b50576040517f08c379a0000000000000000000000000000000000000000000000000000000008152600401610b47906115cf565b60405180910390fd5b60018060003373ffffffffffffffffffffffffffffffffffffffff1673ffffffffffffffffffffffffffffffffffffffff16815260200190815260200160002060000160016101000a81548160ff02191690831515021790555080600160003373ffffffffffffffffffffffffffffffffffffffff1673ffffffffffffffffffffffffffffffffffffffff1681526020019081526020016000206001018190555060028160028110610c0557610c0461127a565b5b6020918282040191900681819054906101000a900460ff1680929190610c2a9061161e565b91906101000a81548160ff021916908360ff160217905550503373ffffffffffffffffffffffffffffffffffffffff167fa994ad3636566ffff0946c14b8bf866bafe8e2f172a01a30099fb903939f032f82604051610c899190611647565b60405180910390a2600192505050949350505050565b60016020528060005260406000206000915090508060000160009054906101000a900460ff16908060000160019054906101000a900460ff16908060010154905083565b60008054906101000a900473ffffffffffffffffffffffffffffffffffffffff1681565b6040518060400160405280600290602082028036833780820191505090505090565b600060029050919050565b600081905092915050565b6000819050919050565b600060ff82169050919050565b610d5f81610d49565b82525050565b6000610d718383610d56565b60208301905092915050565b6000602082019050919050565b610d9381610d29565b610d9d8184610d34565b9250610da882610d3f565b8060005b83811015610dd9578151610dc08782610d65565b9650610dcb83610d7d565b925050600181019050610dac565b505050505050565b6000604082019050610df66000830184610d8a565b92915050565b600080fd5b600073ffffffffffffffffffffffffffffffffffffffff82169050919050565b6000610e2c82610e01565b9050919050565b610e3c81610e21565b8114610e4757600080fd5b50565b600081359050610e5981610e33565b92915050565b600060208284031215610e7557610e74610dfc565b5b6000610e8384828501610e4a565b91505092915050565b600080fd5b600081905082602060020282011115610ead57610eac610e8c565b5b92915050565b600081905082604060020282011115610ecf57610ece610e8c565b5b92915050565b600081905082602060010282011115610ef157610ef0610e8c565b5b92915050565b6000806000806101208587031215610f1257610f11610dfc565b5b6000610f2087828801610e91565b9450506040610f3187828801610eb3565b93505060c0610f4287828801610e91565b925050610100610f5487828801610ed5565b91505092959194509250565b60008115159050919050565b610f7581610f60565b82525050565b6000602082019050610f906000830184610f6c565b92915050565b6000819050919050565b610fa981610f96565b8114610fb457600080fd5b50565b600081359050610fc681610fa0565b92915050565b600060208284031215610fe257610fe1610dfc565b5b6000610ff084828501610fb7565b91505092915050565b61100281610d49565b82525050565b600060208201905061101d6000830184610ff9565b92915050565b61102c81610f96565b82525050565b60006060820190506110476000830186610f6c565b6110546020830185610f6c565b6110616040830184611023565b949350505050565b61107281610e21565b82525050565b600060208201905061108d6000830184611069565b92915050565b600082825260208201905092915050565b7f4f6e6c792061646d696e2063616e20706572666f726d2074686973206163746960008201527f6f6e000000000000000000000000000000000000000000000000000000000000602082015250565b6000611100602283611093565b915061110b826110a4565b604082019050919050565b6000602082019050818103600083015261112f816110f3565b9050919050565b7f566f74657220697320616c726561647920726567697374657265640000000000600082015250565b600061116c601b83611093565b915061117782611136565b602082019050919050565b6000602082019050818103600083015261119b8161115f565b9050919050565b7f566f746572206973206e6f742072656769737465726564000000000000000000600082015250565b60006111d8601783611093565b91506111e3826111a2565b602082019050919050565b60006020820190508181036000830152611207816111cb565b9050919050565b7f566f7465722068617320616c726561647920766f746564000000000000000000600082015250565b6000611244601783611093565b915061124f8261120e565b602082019050919050565b6000602082019050818103600083015261127381611237565b9050919050565b7f4e487b7100000000000000000000000000000000000000000000000000000000600052603260045260246000fd5b7f496e76616c69642063616e646964617465000000000000000000000000000000600082015250565b60006112df601183611093565b91506112ea826112a9565b602082019050919050565b6000602082019050818103600083015261130e816112d2565b9050919050565b82818337505050565b61132a60408383611315565b5050565b600060029050919050565b600081905092915050565b6000819050919050565b61135a60408383611315565b5050565b600061136a838361134e565b60408301905092915050565b600082905092915050565b6000604082019050919050565b6113978161132e565b6113a18184611339565b92506113ac82611344565b8060005b838110156113e5576113c28284611376565b6113cc878261135e565b96506113d783611381565b9250506001810190506113b0565b505050505050565b6113f960208383611315565b5050565b600061012082019050611413600083018761131e565b611420604083018661138e565b61142d60c083018561131e565b61143b6101008301846113ed565b95945050505050565b61144d81610f60565b811461145857600080fd5b50565b60008151905061146a81611444565b92915050565b60006020828403121561148657611485610dfc565b5b60006114948482850161145b565b91505092915050565b7f566572696669636174696f6e20726573756c7400000000000000000000000000600082015250565b60006114d3601383611093565b91506114de8261149d565b602082019050919050565b60006040820190508181036000830152611502816114c6565b90506115116020830184610f6c565b92915050565b7f496e76616c69642070726f6f6600000000000000000000000000000000000000600082015250565b600061154d600d83611093565b915061155882611517565b602082019050919050565b6000602082019050818103600083015261157c81611540565b9050919050565b7f496e76616c696420766f74652076616c75650000000000000000000000000000600082015250565b60006115b9601283611093565b91506115c482611583565b602082019050919050565b600060208201905081810360008301526115e8816115ac565b9050919050565b7f4e487b7100000000000000000000000000000000000000000000000000000000600052601160045260246000fd5b600061162982610d49565b915060ff820361163c5761163b6115ef565b5b600182019050919050565b600060208201905061165c6000830184611023565b9291505056fea264697066735822122022919fcf70000b1e8b3d6a720f662a4e16b536ad6bef4008d1ae6c169896323164736f6c63430008180033",
  "linkReferences": {},
  "deployedLinkReferences": {}
}